:020000040800F2
:10000000A80D0020010100084328000891250008E0
:1000100041280008ED0C0008AD3000080000000089
:100020000000000000000000000000009D2D0008FE
:10003000950D000800000000892B00089F2D000886
:100040001B0100081B0100081B0100081B01000820
:100050001B0100081B0100081B0100081B01000810
:100060001B0100081B0100081B0100081B01000800
:100070001B0100081B0100081B0100081B010008F0
:100080001B0100081B010008150C00081B010008DB
:100090001B0100081B0100081B0100081B010008D0
:1000A0001B0100081B0100081B0100081B010008C0
:1000B0001B0100081B010008592E00081B01000845
:1000C0001B0100081B0100081B0100081B010008A0
:1000D0001B0100081B0100081B0100081B01000890
:1000E0001B0100081B0100081B010008DFF80CD0F1
:1000F00000F07EFD0048004751340008A80D0020A4
:100100000648804706480047FEE7FEE7FEE7FEE7B1
:10011000FEE7FEE7FEE7FEE7FEE7FEE7112E00083A
:10012000ED0000082DE9F04F4FF0000C4FF00003F8
:1001300001EB9C6EBEF902503EF9404BBEF90290B5
:100140003EF9408BBEF902703EF9406BBEF902B039
:100150003EF940ABD044D944A8EB4A0AA9EB4B0B7B
:100160004FEAA4044FEAA50504EBA60405EBA70596
:10017000A4EB6606A5EB670704EBA80405EBA9054D
:10018000A4EB6808A5EB690906EBAB06A7EBAA0789
:10019000A6EB6B0B07EB6A0A458020F8044B4780FF
:1001A00020F8046BA0F8029020F8048BA0F802A0BD
:1001B00020F804BB03F1010393FAA3FC102BB7D181
:1001C000A0EB82014FF0100312090FF2361000F17C
:1001D000000006B403EB430C6144A2F5803202EB4D
:1001E0008332B1F90250B1F90040A1EB0301B0F93B
:1001F00002B0B0F900A000F10400A5EB040E0EFB64
:100200000BFC0AEB4B0E05FB0ACB04FB0ECAB1F943
:100210000250B1F90040A1EB0301B0F90290B0F92E
:10022000008000F10400A5EB040E0EFB09FC08EBB6
:10023000490E05FB08C904FB0EC8B1F90250B1F91B
:100240000040A1EB0301B0F90270B0F9006000F1C9
:100250000400A5EB040E0EFB07FC06EB470E05FBA6
:1002600006C704FB0EC6B1F90250B1F9004001F116
:100270000001D044D944A8EB4A0AA9EB4B0B4FEA42
:10028000A4044FEAA50504EB264405EB2745A4EB9F
:10029000E636A5EBE73704EB284405EB2945A4EB4C
:1002A000E838A5EBE93906EB2B46A7EB2A47A6EB86
:1002B000EB3B07EBEA3A4D800C8019444F800E80EF
:1002C0001944A1F80290A1F800801944A1F802A0F5
:1002D00021F804BBB2F5803283DA03EB430C6144AE
:1002E000A2F101025FEA024E18BFA0EB0C007FF4FE
:1002F00076AF06BC4FEA830392087FF46AAFBDE88D
:10030000F08F0040000000400000004000005DDD74
:10031000213BA3227E180000412D7EA5412D000027
:10032000412D00C000405DDD82E75DDD213B7EA503
:10033000412D004000000040000000400000AA2ABB
:1003400094126B39460649327C0CA8118E2349322F
:100350007C0CA3227E1821F77931AA2A9412A811C5
:100360008E235DDD213BA3227E180000412D95C622
:10037000B13F461A2B1E58EE3735BEB4C53EA81104
:100380008E235DDD213B63A97138DF089A28B7CD44
:10039000C53E7EA5412D0000412D00C0004063A94F
:1003A0002B1E21F77931BEB4C53EBEB47C0C58EE8D
:1003B000373561AC213B95C6BAF9BAE571383BA730
:1003C00037355DDD82E75DDD213B7EA5412D21F7DF
:1003D00066D756D53F3D3BA78E23A811C9CAB7CDD6
:1003E000C53E61AC7E18AA2AC1C295C6B13FBEB453
:1003F0007C0C202A04DB203A21FA02F0002170470D
:1004000021FA02F3D040C2F120029140084319467C
:100410007047D2B201E000F8012B491EFBD27047B1
:100420000022F6E710B513460A4604461946FFF7C0
:10043000F0FF204610BD421C10F8011B0029FBD123
:10044000801A7047F0B480EA0102D40F4200B2EB88
:10045000410F02D20246084611464A0042D0C30D5F
:10046000DDB2C1F3C752AD1A202D35DAC1F3160142
:1004700041F4000204B15242C5F1200602FA06F12D
:100480002A411044B3EBD05F23D0C4B1012DA0EBBF
:10049000C35009DCF0BC4FF0004202EAC352DBB2A9
:1004A00000F5000000F0C8BA400000F1807000EBD9
:1004B000C350A0F1807040EAD170490009E04908BA
:1004C00041EAC071A0EBC35000F50000400800EB0A
:1004D000C350F0BC00F0A7BA6142012202EB410117
:1004E000001BF6E7F0BC704781F00041AAE780F0FE
:1004F0000040A7E780EA010210B502F00043400087
:1005000022D04A001FD0010E01EB1261C0F3560049
:10051000C2F3560240F4000042F40002A0FB0220A5
:1005200000047F39140400D0401C50EA124001D46A
:100530004000491EC2B20C0604EBD010401C40081B
:10054000802A02D003E0002010BD20F00100002925
:1005500000DA0020184310BD420005D0C0F3C75296
:100560005242914201DC0020704700EBC1507047BD
:100570002DE9FE4F804681EA0300C00F0C46009033
:1005800021F0004123F00045B8EB0200A94105D25B
:100590004046214690461C460B46024623F000404A
:1005A000104347D0270DC7F30A00C3F30A51029046
:1005B000401A019040286BDAC3F3130040F4801B0B
:1005C0000098924620B10023D2EB030A63EB0B0B99
:1005D00001985946C0F14002504600F003FA064621
:1005E0000D4650465946019A00F00BFA10EB0800F0
:1005F0006141002487EA115284EAE7731A4340D02C
:10060000009A62B3019A012A4FEA075215DC001BD7
:1006100061EB02014FF0004202EA0752CDE90042CD
:10062000001C41F5801132462B4600F042FA03B01F
:10063000BDE8F08F40462146F9E7001B61EB02015F
:10064000001C41F5801300185B412018A2F500172B
:1006500047EB030140EAD570B6196D4111E06D0812
:100660004FEA360645EAC0754FEA0752001B61EBB8
:100670000201001C41F5801149084FEA30000019C1
:10068000514132462B4603B0BDE8F04F00F002BAAC
:100690000098012240000023D0EB020263EBE073DC
:1006A000009821464FEAE074B8EB000061EB0401CA
:1006B000E9E783F000435BE781F0004158E72DE96B
:1006C000FE4F81EA030404F0004421F0004100944D
:1006D0004FF0000B23F0004350EA01045ED052EAD1
:1006E00003045BD0C3F30A54C1F30A552C44A4F2AB
:1006F000F3340194A0FB0254C1F3130141F48011BF
:10070000C3F3130343F4801301FB024400FB034EC5
:10071000840A970A44EA815447EA8357A4FB07688E
:1007200002958D0A05FB07854FEA932C04FB0C54B8
:100730002705029D4FEA065847EA1637B5EB08052C
:100740006EEB070C870E920E47EA811742EA83127E
:10075000A7FB0201B6EB0B0164EB00042B0D43EA8F
:100760000C335E1844EB1C50DA465146E7FB02019D
:10077000C5F313044FEA0B3343EA14534FEA043230
:10078000019C43EA0603A4F10C040294009CCDE909
:1007900000B400F08EF903B0BDE8F08F00200146F0
:1007A000F9E72DE9F04D81EA030404F0004B21F054
:1007B000004514464FF0000A23F0004150EA0502BC
:1007C00020D054EA01021DD0C5F30A570246C5F3F2
:1007D0001303C1F31300C1F30A5640F4801543F428
:1007E0008013A7EB0608101BD64608F2FD3873EB02
:1007F000050002D308F1010801E092185B41B8F14D
:10080000000F03DA00200146BDE8F08D00204FF410
:100810008011064684460EE0171B73EB050705D3CF
:10082000121B63EB050306434CEA010C49084FEA2F
:10083000300092185B4150EA0107EDD152EA030003
:1008400012D082EA040083EA0501084305D0101B98
:10085000AB4106D20122002306E000224FF0004304
:1008600002E06FF0010253101AEB06004CEB085146
:1008700010EB0A0041EB0B01BDE8F04D00F00AB9A6
:10088000C10F80EAE0700844CA079623002100F0F7
:10089000D3B80EB5C10F80EAE0700844CA07002142
:1008A00040F233438DE80E000A460B4600F001F992
:1008B00003B000BD0EB540F2334102910021CDE9F5
:1008C00000110A460B4600F0F4F803B000BD00F03A
:1008D000004220F00040C10DC0F3160040F40000BB
:1008E0007F2901DA00207047962903DCC1F19601C7
:1008F000C84001E096398840002AF4D04042704751
:1009000020F00040C10DC0F3160040F400007F2924
:1009100001DA00207047962903DCC1F19601C84036
:100920007047963988407047C1F30A5210B5C1F339
:10093000130140F2FF3341F480119A4201DA0020A2
:1009400010BD40F233439A42A2F2334203DC5242DA
:10095000FFF74FFD10BD904010BD00F0004230F099
:1009600000400AD0C10D01F56071C0F3160042EAE3
:100970000151C208400711437047002001467047EB
:1009800001F0004330B421F0004150EA010206D0EA
:100990000A0DA2F56072C1F31301002A02DC30BC1B
:1009A00000207047440F44EAC104C100E01830BC85
:1009B00000EBC25000F037B830B50B4601460020BE
:1009C0002022012409E021FA02F59D4205D303FA11
:1009D00002F5491B04FA02F52844151EA2F1010292
:1009E000F1DC30BD202A04DB203A00FA02F10020BD
:1009F00070479140C2F1200320FA03F3194390405D
:100A00007047202A06DBCB17203A41FA02F043EA6E
:100A1000E07306E041FA02F3D040C2F120029140B7
:100A20000843194670470029A8BF7047401C490079
:100A300008BF20F00100704710B4B0FA80FC00FA43
:100A40000CF050EA010404BF10BC704749B1CCF16E
:100A5000200421FA04F411FA0CF118BF01212143FA
:100A60000843A3EB0C01CB1D4FEA00614FEA1020B5
:100A700042BF002010BC704700EBC3501044002957
:100A8000A4BF10BC7047401C490008BF20F0010003
:100A900010BC704710B5141E73F1000408DA401C36
:100AA00041F1000192185B411A4301D120F001008D
:100AB00010BD2DE9F04D92469B4611B1B1FA81F27D
:100AC00002E0B0FA80F220329046FFF78BFF044636
:100AD0000F4640EA0A0041EA0B0153465A460843D2
:100AE00013D0114653EA010019D0C8F14002504614
:100AF000FFF77FFC05460E46504659464246FFF733
:100B000071FF084305D0012004E020463946BDE8C6
:100B1000F08D0020054346EAE0762C4337430A98DF
:100B20006305E40AA0EB08000022FD0A44EA4754EA
:100B30000A3002D500200146E9E701051019694194
:100B4000DDE9084500196941BDE8F04DA2E72DE94E
:100B5000F04D00231A461B1A8A4103DB0020014690
:100B6000BDE8F08DC1F30A52C1F3130141F48015C1
:100B70004FF0000BD10702D100186D41521E002723
:100B8000044640F2FF11384601EB620A3E468046B9
:100B9000024600204FF48011FFF72BFCC21971416F
:100BA000BB1846EB0100B4EB030C75EB000C04D34F
:100BB000E41A65EB000517460E46241908F10100FA
:100BC0006D4180463428E3DDF91946EB0600091B28
:100BD000A84103D24FF0FF32134601E00022134632
:100BE0001BEB070046EB0A51BDE8F04DFFF752BF83
:100BF000064C074D06E0E06840F0010394E807006A
:100C000098471034AC42F6D3FFF774FA74540008D6
:100C10009454000810B5044800F044F9BDE81040B1
:100C2000024800F03FB90000B0080020E0080020B2
:100C300070B5044600688168C943C9071BD1816843
:100C400021F00101816000F075FC05460EE000F026
:100C500071FC401B022809D9A06A40F01000A06274
:100C6000E06A40F00100E062012070BD2068806809
:100C7000C043C007EBD0002070BD0000F8B50026CF
:100C80000446009600688168C943C90727D0816877
:100C900041F001018160134813490068B0FBF1F095
:100CA00000E0401E00900028FBD100F043FC054608
:100CB00010E000F03FFC401B02280BD9A06A40F076
:100CC0001000A062E06A40F00100E06284F8246055
:100CD0000120F8BD20688068C043C007E9D100202A
:100CE000F8BD00002800002040420F00FEE7000091
:100CF00070B50446254DC00701D0012200E0002256
:100D00000421284600F011FCA00701D5012200E0D3
:100D100000220821284600F008FC600701D50122C6
:100D200000E000221021284600F0FFFB200701D53B
:100D3000012200E000222021284600F0F6FBE00618
:100D400001D5012200E000224021284600F0EDFB01
:100D5000A00601D5012200E000228021284600F0F3
:100D6000E4FB0B4D600601D5012200E000220121C9
:100D7000284600F0DAFB200601D5012200E000221F
:100D80002846BDE87040022100F0CFBB00080140BA
:100D9000000C01407047704770470000F8B5002311
:100DA000009390F824201C46012A12D0012280F8DA
:100DB00024204A681F26072A0DD205686F6B521E31
:100DC00002EB82029640B7430E68964037436F634A
:100DD00019E00220F8BD05680D2A0AD22F6BD21F38
:100DE00002EB82029640B7430E68964037432F636A
:100DF00009E0EF6A0D3A02EB82029640B7430E68B3
:100E000096403743EF620A68072605680A2A0AD324
:100E1000EF680A3A02EB42029640B7438E6896406A
:100E20003743EF6008E02F6902EB42029640B74378
:100E30008E68964037432F610A68102A01D0112A24
:100E400020D1124D0268AA4217D195682D0219D4FB
:100E5000956845F4000595600968102912D10C4980
:100E60000C4A0968B1FBF2F101EB8101490000E095
:100E7000491E00910029FBD104E0816A41F0200164
:100E80008162012380F824401846F8BD0024014007
:100E90002800002040420F007047806A70470068B9
:100EA000C06C704710B5044600684168890626D5B5
:100EB0000168890723D5A16AC90603D4A16A41F450
:100EC0000071A1628168C1F34241072910D1E16834
:100ED00071B9416821F020014160A06A20F480705E
:100EE000A062A06AC00403D4A06A40F00100A0621E
:100EF0002046FFF7D1FF21686FF0120008602068DC
:100F0000416809062ED5016849072BD5A16AC90693
:100F100003D4A16A41F40051A1628168C1F3023196
:100F2000072909D04168490515D48168C1F34241B8
:100F3000072910D1E16871B9416821F08001416051
:100F4000A06A20F48050A062A06AC00503D4A06A01
:100F500040F00100A0622046FFF71EFF21686FF0FD
:100F60000C0008602068416849060DD50068C0077C
:100F70000AD0A06A40F48030A062204600F094F8C5
:100F800021686FF00100086010BD00002DE9F041FC
:100F90004FF00006040035467DD0A06A002728B92E
:100FA000E76284F82470204600F080F82046FFF7BE
:100FB0003FFEA16AC90600D420B1A06A40F010002B
:100FC000A06268E0A16A21F4885141F00201A162A7
:100FD0006268E169E3680A4346EA43010A43A1689B
:100FE0004FF48076B14208D0012906D00021D4F810
:100FF00014C0BCF1010F02D00AE03146F7E7F3B1AB
:10100000A36A43F02003A362E36A43F00103E362AF
:101010002368D3F804C02CF4694C4CEA010CC3F8E3
:1010200004C021688B68DFF874C003EA0C03134323
:101030008B60A168B1420BD0012909D00CE0DFF828
:1010400060C0A3690CEB43330B4343F40061DFE75B
:10105000218A0D05A5F580152168CB6A23F470035C
:101060002B43CB62216889680E4B1940914208D10D
:10107000E762A16A21F0020141F00101A162BDE82D
:10108000F081A06A20F0020040F01000A062E06A47
:1010900040F00100E0620120F1E70000FDF7E1FF10
:1010A00000E0FFFFFE0E1FFF7047000010B586B086
:1010B000002100910191029103911E4C02681E498A
:1010C00003231E48A24211D18A6942F400728A6148
:1010D0008A6902F4007204928A6942F004028A6109
:1010E000896901F004010491012113E0144CA2422A
:1010F0001DD18A6942F480628A618A6902F4806241
:1011000004928A6942F004028A61896901F004014B
:1011100004910221CDE90013694600F01DF9002277
:101120001146122000F070FA122000F061FA06B0A9
:1011300010BD0000002401400010024000080140E2
:10114000002801402DE9F8434FF000080D46044601
:10115000CDF8008000F0EEF9064620688168C905E8
:1011600008D5A06A40F02000A06284F82480012005
:10117000BDE8F8834168C90503D4C06A10F4700F54
:1011800025D0022000F078FA37490968B1FBF0F762
:1011900020680169354A11424FEA62024FEAA21300
:1011A0001AD1C1684FEA621C11EA0C0F14D101690F
:1011B000114220D1C06818421DD114201EE0681CC5
:1011C00005D035B300F0B6F9801BA84221D82068BD
:1011D00000688007F3D529E00169114202D1C16896
:1011E000194206D0026922490A4206D1C068084263
:1011F00003D1542002E0292000E0FC20474300985E
:1012000012E0681C0DD025B100F094F9801BA842B3
:1012100007D9A06A40F00400A06284F8248003206B
:10122000A6E70098401C0090B842EAD321686FF00E
:1012300012000860A06A40F40070A0622068806814
:10124000C0F3424007280CD1E06850B9A06A20F4EE
:101250008070A062A06AC00403D4A06A40F00100BC
:10126000A062002084E70000280000202449922486
:101270004992240070B5044690F8240001280DD04E
:10128000012084F824002046FFF7F8FC01004FF00D
:10129000000205D084F82420084670BD022070BDED
:1012A000A06A40F20123984340F48070A0621F4D71
:1012B00020681F4BA84218D11E6816F4702F14D056
:1012C000A66A46F48016A6621E68760505D5A66A4B
:1012D00026F4005646F48056A662A66AF6040AD59D
:1012E000E66A26F00606E66206E0A66A26F480169E
:1012F000A6624668E9E7E26284F824206FF0020201
:10130000026020688268C2F34242072A05D1A842DF
:1013100008D11A6812F4702F04D0826842F4801247
:101320008260B9E7826842F4A002F9E70028014030
:101330000424014070B5044600F0FCF80546601C2A
:1013400002D004480078044400F0F4F8401BA042A6
:10135000FAD370BD1C0000202DE9F84FDFF8A091F2
:10136000002309F1040A0AF1040B1C464FF00F0890
:101370000BF1040E01270A68A7403A40BA4272D125
:10138000DFF880C14D68A5EB0C0665452BD00DDC60
:10139000032D34D005DC35B3012D19D0022D2FD10A
:1013A0001BE0112D16D0122D2AD119E0B6F5881F99
:1013B00019D006DCB6F5803F15D0B6F5801F1FD1D9
:1013C00011E0B6F5001F0ED0B6F5041F18D10AE0E3
:1013D000CB6815E0CB681B1D12E0CB6808330FE02B
:1013E000CB680C330CE08B682BB1012B4FF008035A
:1013F00003D0476104E0042302E0076100E000231A
:10140000FF2A01D8064601E000F104064FEA8405F0
:1014100001D9A5F12005376808FA05FC27EA0C0771
:1014200003FA05F547EA050737604D68ED0060D51A
:10143000354DAE6946F00106AE61AD6924F0030694
:1014400005F001050095314D7719BE68A5072D0FF0
:1014500008FA05FC26EA0C06DFF8B4C0604503D1A3
:101460004FF0000C17E044E0DFF8A8C0604502D15F
:101470004FF0010C0FE0DFF8A0C0604502D14FF043
:10148000020C08E0DFF894C0604502D14FF0030C75
:1014900001E04FF0040C0CFA05FC4CEA060CC7F80E
:1014A00008C04D68D9F80060ED034D4601D51643DC
:1014B00000E096432E604D68DAF80060AD035546B3
:1014C00001D5164300E096432E604D68DBF80060BE
:1014D000ED025D4601D5164300E096432E604D684F
:1014E000DEF80060AD02754601D5164300E0964374
:1014F0002E60641C102CFFF43DAFBDE8F88F000097
:1015000000040140000011100010024000000140E2
:1015100000080140000C014000100140001401408F
:101520008068084000D0012070470AB1016170470F
:101530000904FBE701488068704700001C00002098
:101540000248816802781144816070471C000020C5
:10155000074810B5016841F010010160032000F058
:1015600073F8002000F006F800F024F8002010BD09
:101570000020024070B50D4D04464FF47A71287872
:10158000B1FBF0F00A490968B1FBF0F000F0B5FDDD
:1015900048B9102C07D200222146501E00F034F822
:1015A00000206C6070BD012070BD00001C00002098
:1015B000280000200C4808B5816941F001018161D3
:1015C000816901F001010091C16941F08051C1615F
:1015D000C069064900F080500090486820F0E06043
:1015E00040F00070486008BD00100240000001405B
:1015F00000F01F02012191404009800000F1E0202D
:10160000C0F8001170470000F0B40E4B1B68C3F324
:101610000223C3F10704042C00D904241D1D072D47
:1016200001D2002300E0DB1E012606FA04F56D1E40
:101630000D409D409E40761E164045EA0601F0BCD6
:1016400001F000B90CED00E0064A00F00701106857
:101650004FF6FF03184040EA012003490843106099
:10166000704700000CED00E00000FA050149012080
:101670000862704700000E4210B5014627A086B0F0
:101680001DC88DE81D0029A0294C00680490002089
:10169000012922D0022939D010291CD16168226881
:1016A000D20118D5C1F38342C9031DF8020009D540
:1016B000616804AAC1F34041515C1E4AB2FBF1F1DA
:1016C000484301E01C4948436168490203D4400093
:1016D0000321B0FBF1F006B010BD216AC1F3012275
:1016E000012A03D1890701D5D003F4E7022A05D1E5
:1016F000616A890702D549F64040ECE7032AEAD13E
:1017000021688903E7D54FF22440E4E700F04EF961
:101710006168C1F38131491C4900DAE7020304051D
:10172000060708090A0B0C0D0E0F1010010200002D
:101730000010024000127A0000093D002DE9F84334
:1017400004460078344FC00752D0F8690025C00025
:1017500008D4F86940F08050F861F869012500F07C
:10176000805000902D480168C90511D40168804659
:1017700041F480710160FFF7DDFE064604E0FFF7EB
:10178000D9FE801B642822D8D8F80000C005F6D501
:10179000386A10F4407020D0A18801F44071814271
:1017A0001BD0386A1E49012220F440700A600022D2
:1017B0000A603862C00710D0FFF7BCFE064641F24F
:1017C000883807E0FFF7B6FE811B414502D90320A8
:1017D000BDE8F883386A8007F4D5386A616820F478
:1017E0004070084338621DB1F86920F08050F861FC
:1017F0002078800705D57868A16820F44040084328
:1018000078602078C00605D57868E16820F480000B
:10181000084378600020DBE70010024000700040C1
:10182000400442422DE9F047DFF8508104460E465D
:10183000D8F8000000F00700B0420CD2D8F8001031
:1018400021F007013143C8F80010D8F8000000F07B
:101850000700B0426DD12068494F810712D540077B
:1018600003D5786840F4E06078602078000703D5FD
:10187000786840F4605078607868A16820F0F000E3
:10188000084378602078C00742D06068012816D0ED
:101890003968022816D0890700294ADA796821F0C8
:1018A000030101437960FFF745FE0546606841F298
:1018B000883101280ED00228894617D024E03968E3
:1018C0008903E9E78901E7E7FFF734FE411B494552
:1018D00001D916E089467868C0F381000128F3D168
:1018E00016E0FFF727FE411B49450AD87868C0F388
:1018F00081000228F5D10BE0FFF71CFE411B494592
:1019000002D90320BDE8F087786810F00C0FF3D1FE
:10191000D8F80010404601F00701B1420BD9016828
:1019200021F0070131430160006800F00700B04278
:1019300001D00120E6E72078400705D57868E16806
:1019400020F4E060084378602078000706D57868C6
:10195000216920F4605040EAC100786000F036F858
:101960007968084AC1F30311515CC8400649086010
:101970000020FFF7FFFD0020C4E700000020024028
:1019800000100240FC5300082800002004480549CC
:1019900000684968044AC1F30221515CC84070479D
:1019A00028000020001002400C540008044805499B
:1019B00000684968044AC1F3C221515CC8407047BD
:1019C00028000020001002400C54000812A085B02E
:1019D0000FC88DE80F0014A0144B006804905968DC
:1019E000134801F00C02042A10D0082A0ED1C1F3CA
:1019F0008342C9031DF802000AD5596804AAC1F33D
:101A00004041515C0A4A5043B0FBF1F005B07047C9
:101A100008494843FAE700000203040506070809DD
:101A20000A0B0C0D0E0F10100102000000100240F6
:101A300000127A0000093D002DE9F84F04460078B5
:101A4000B64DC00747D06868C0F38100012807D0B1
:101A50006868C0F38100022809D16868C00306D510
:101A60002868800337D5606800286ED033E060684E
:101A7000B0F5803F0BD010B1B0F5A02F11D0286881
:101A800020F480302860286820F4802002E0286854
:101A900040F480302860606888B1FFF74BFD06464F
:101AA00009E0286840F480202860F0E7FFF742FD55
:101AB000801B642873D828688003F7D50BE0FFF7F4
:101AC00039FD064604E0FFF735FD801B6428F1D898
:101AD00028688003F7D42078DFF8448280074FF02D
:101AE000010A4FF0000939D5686810F00C0F07D0D3
:101AF0006868C0F38100022809D16868C00306D471
:101B00002868800713D5206901281ED10FE02069BD
:101B1000A8B1C8F800A0FFF70DFD064604E0FFF7E6
:101B200009FD801B0228C5D828688007F7D52868DA
:101B3000616920F0F80040EAC10028600EE0C8F8B2
:101B40000090FFF7F7FC064605E0E5E0FFF7F2FC42
:101B5000801B022823D828688007F7D42078000744
:101B60002CD57049A069D8B1C1F800A0FFF7E2FCFC
:101B7000064604E0FFF7DEFC801B02280FD8686AE7
:101B80008007F7D568484FF4FA510068B0FBF1F0D0
:101B9000009000BF0098411E0091FAD20EE07CE058
:101BA000C1F80090FFF7C6FC064604E0FFF7C2FC50
:101BB000801B022871D8686A8007F7D42078400714
:101BC0005BD5E8690027C00008D4E86940F0805080
:101BD000E861E869012700F08050009053480168EF
:101BE000C90511D40168834641F480710160FFF793
:101BF000A1FC064604E0FFF79DFC801B64284CD83E
:101C0000DBF80000C005F6D5E06801280AD008B16D
:101C1000052813D0286A20F001002862286A20F0E5
:101C2000040002E0286A40F001002862E06841F206
:101C3000883B88B1FFF77EFC064609E0286A40F041
:101C400004002862EEE7FFF775FC811B59455BD85D
:101C5000286A8007F7D50BE0FFF76CFC064604E026
:101C6000FFF768FC811B59454ED8286A8007F7D4D6
:101C70001FB1E86920F08050E861E069A8B36968A5
:101C8000C1F38101022947D00228484606D0C8F88E
:101C90006000FFF74FFC044639E035E04746C8F8DE
:101CA0006000FFF747FC064604E0FFF743FC801B9B
:101CB000022829D828688001F7D4206AB0F5803F2F
:101CC00005D16868A16820F4003008436860D4E951
:101CD00008010843696821F4741108436860C7F873
:101CE00060A0FFF727FC044605E013E0FFF722FCA5
:101CF000001B022808D828688001F7D50AE0FFF702
:101D000019FC001B022802D90320BDE8F88F2868BF
:101D10008001F4D40020F8E70120F6E7001002402B
:101D2000000042428004424228000020007000402F
:101D3000024850F8210080B270470000006C00405B
:101D4000024800EB810091B201607047006C0040D6
:101D5000F8B505004FF0000016460C46009006D07E
:101D60002CB100226946284600F019F808B101207C
:101D7000F8BD287B2070E87BE070697B6170A97BEF
:101D8000A17056B100F00AFFE070607800F006FF25
:101D90006070A07800F002FFA0700020F8BD2DE96F
:101DA000F04791460C465FEA00084AD084B3D8F861
:101DB00000004068400744D4404600F08CFF4FF4D8
:101DC0006162B0FBF2F10546B0FBF2F002FB10538A
:101DD0003C20B3FBF0F36370B5FBF2F302FB13524C
:101DE000B2FBF0F300FB1320A070182931D31820A8
:101DF000B1FBF0F6B1FBF0F200FB12102070404690
:101E000000F062FF411C04D0A84202D9471B02E047
:101E100017E04FF0FF37A6EB061000EB4000C0EBD9
:101E2000001005EBC0152946404600F0A3FF40B95D
:101E3000781C01D0791900E03946404600F086FF51
:101E400010B10120BDE8F0873146404600F0B1FEF8
:101E500000E02170B9F1000F0BD0207800F09EFE59
:101E60002070607800F09AFE6070A07800F096FE16
:101E7000A0700020E6E7000070B5040003D0607C8D
:101E8000002610B105E0012070BD2674204600F048
:101E900043F802206074204600F012F9042578BB54
:101EA000204600F0DDFE58BB2068416821F00701A4
:101EB0004160A06820B11748016821F0010101606C
:101EC0001448001F0168A26821F460711143016089
:101ED0006068411C04D10120FFF7CEFB80B1401E99
:101EE00021688A6822F00F0242EA10428A60216863
:101EF000CA6860F30F02CA60204600F0CBFE08B14A
:101F00006574C0E7E67301206073A07360740020FD
:101F100070BD0000306C004008B500680849884278
:101F20000DD1FFF7A3FB0748C16941F00061C16112
:101F3000C069054900F0006000900120086008BDFC
:101F400000280040001002403C0442422DE9F041CC
:101F50000D4604003BD0C5B3207C01283AD04FF099
:101F6000010884F8108002206074E87872B300F0F1
:101F70000CFEE073687800F008FE6073A87800F04B
:101F800004FEA073C2B2617BE07B00F0B4FE20735C
:101F90002870204600F09FFE4FF46161B0FBF1F124
:101FA000002518292DD91822B1FBF2F1A1EB01115E
:101FB00001EB4101C1EB011100EBC1163146204696
:101FC00000F0D8FE0427C8B90BE000E004E00120CF
:101FD000BDE8F0810220FBE7E07368786073A878C1
:101FE000CFE7204600F070FE411C0AD0B04208D274
:101FF00006490144204600F0A9FE10B1677425741B
:10200000E5E784F8118025740020E1E780510100A4
:102010002DE9F0410D46040024D01DB3207C012899
:1020200023D04FF0010884F8108002206074F2B1D0
:10203000287800F0AAFD4FF4616100FB01F6687892
:1020400000F0A3FDC0EB001006EB8006A87800F0BE
:102050009CFD35182946204600F08CFE00260427FA
:1020600018BB10E00120BDE8F0810220FBE72978D1
:102070004FF4616041436878C0EB001001EB8000D1
:10208000A9784518E6E72068416821F0050141601C
:10209000204600F019FE411C0AD0A84208D2074988
:1020A0000144204600F052FE10B167742674D9E74F
:1020B00084F8118026740020D5E7000080510100CB
:1020C00070B504000AD02068416821F00801416021
:1020D000FFF730FA05464FF47A7608E0012070BD2C
:1020E000FFF728FA401BB04201D9032070BD2068D9
:1020F00040680007F4D5002070BD10B5401EB0F157
:10210000807F01D3012010BD4FF0E02460610F21DA
:10211000601700F097FB0020A061072020610020DD
:1021200010BD7047704730B590F83C20012A20D090
:10213000012380F83C30022280F83D200268546878
:1021400024F070045460026854680D682C43546095
:102150000268946824F08004946002689468496876
:102160000C43946080F83D30002180F83C10084614
:1021700030BD022030BD10B5040003D094F83D00FE
:1021800010B107E0012010BD002084F83C0020467B
:1021900000F00CF8022084F83D00211D206800F0BA
:1021A00061FE012084F83D00002010BD08B50068E4
:1021B0000B49884212D10B48C16941F00401C16149
:1021C000C069002200F00400009011461E20FFF7B5
:1021D0001BFABDE808401E20FFF70ABA08BD000040
:1021E0000008004000100240022180F83D10016804
:1021F0000A6842F001020A60012180F83D100020C7
:1022000070470168CA6842F00102CA60006801684C
:1022100041F00101016000207047022180F83D106B
:1022200001680A6A41F211131A4207D10A6A9B1027
:102230001A4203D10A6822F001020A60012180F8E3
:102240003D100020704770B5044690F83C0001280E
:1022500017D0012584F83C50022084F83D00206806
:10226000826822F0770222F47F4282600868502858
:1022700036D00DDC202858D005DC80B3102840D1A2
:1022800050E0022070BD302852D0402839D13EE0C5
:1022900060282DD070280BD0B0F5805F03D0B0F54A
:1022A000005F2ED110E02068816821F0070109E06D
:1022B000CB68D1E90121206800F00AFE206881681E
:1022C00041F0770181601CE0CB68D1E901212068F1
:1022D00000F0FEFD2068816841F48041F2E71EE0D5
:1022E000CA684968206800F005FE5021206806E0B1
:1022F000CA684968206800F00EFE6021206800F07E
:10230000F1FD84F83D50002084F83C0070BDCA689F
:102310004968206800F0EEFD40212068EFE70021C9
:102320002068ECE710212068E9E720212068E6E733
:1023300030212068E3E7704770B504460068016902
:102340004FF00005C943890715D4C168C9438907FF
:1023500011D4E91E0161012020772068806980077F
:10236000204602D0FFF7E7FF04E000F098F820468F
:1023700000F096F8257720680169C943490717D40A
:10238000C168C943490713D46FF0040101610220F9
:1023900020772068806910F4407F204602D0FFF744
:1023A000CAFF04E000F07BF8204600F079F82577BA
:1023B00020680169C943090716D4C168C9430907E0
:1023C00012D46FF008010161042020772068C069F1
:1023D0008007204602D0FFF7AEFF04E000F05FF870
:1023E000204600F05DF8257720680169C943C906D9
:1023F00017D4C168C943C90613D46FF01001016135
:10240000082020772068C06910F4407F204602D061
:10241000FFF791FF04E000F042F8204600F040F89A
:10242000257720680169C943C90708D1C168C94334
:10243000C90704D1891E0161204600F033F82068E5
:102440000169C943090609D4C168C943090605D40D
:102450006FF0800101612046FFF763FE206801698B
:10246000C943490609D4C168C943490605D46FF078
:1024700040010161204600F021F820680169C9434C
:1024800089060BD4C168C943890607D46FF02001BF
:1024900001612046BDE87040FFF744BE70BD704743
:1024A0007047000000680349884202D102490120B8
:1024B000C87070470008004008000020704770B5E1
:1024C000040004D094F83900002510B106E0012082
:1024D00070BD84F83850204600F022F8242084F89B
:1024E00039002068C16821F40051C160204600F025
:1024F00025FD2068016921F490410161206841694E
:1025000021F02A0141612068C16841F40051C16095
:10251000E563202084F8390084F83A00002070BD7B
:1025200030B585B0002400940194029403940068AF
:102530001449884224D11448816941F48041816161
:10254000816901F480410491816941F00401816154
:1025500080690E4D00F0040004904FF4007000906C
:10256000022001900320039069462846FEF7F4FEFE
:102570002815CDE90004694628460294FEF7ECFED2
:1025800005B030BD00380140001002400008014095
:10259000FEE700003EB500241148009401940F4965
:1025A000029401600125C0E90245446105614FF4D0
:1025B00060214460C161FEF7E9FC08B1FEF7EBFB66
:1025C00007200094CDE9015069460548FEF7E6FB77
:1025D000002801D0FEF7DFFB3EBD000000240140D3
:1025E000B00800203EB500211048009101910E4A2C
:1025F000029102600124C0E9021441614FF460229B
:102600000461C2614160FEF7C1FC08B1FEF7C3FB83
:1026100000940194694605480294FEF7BFFB002828
:1026200001D0FEF7B8FB3EBD00280140E0080020C5
:102630002DE9F04385B000243448009401940294BD
:102640000394816941F010018161816901F01001F9
:102650000491816941F020018161816901F02001CB
:102660000491816941F004018161816901F00401F3
:102670000491816941F0080181618069DFF89080EF
:1026800000F0080004900122FC214046FEF74DFFB7
:10269000DFF8809001224FF2E3214846FEF745FF24
:1026A0004FF48077002239464846FEF73EFF780116
:1026B00001258DE8310069461748FEF74DFEFC20E4
:1026C0000226CDE90005CDE9024669464046FEF7FF
:1026D00043FE4FF2E330CDE90005CDE902466946FD
:1026E0004846FEF739FE0097CDE901466946404667
:1026F000FEF732FE1820CDE90004694648460294F0
:10270000FEF72AFE05B0BDE8F0830000001002408D
:1027100000080140000C0140001001407CB500247D
:102720001E4800941C4901940160611EC0E9011417
:10273000FFF7A2FB08B1FEF72EFB01211748FFF7B8
:10274000F7FA45F25102904225D001211348FFF7D4
:10275000F7FA19258DF800508DF801408DF80240E8
:10276000012269460D48FFF753FC08B1FEF713FB41
:1027700004208DF8040008208DF805008DF806006F
:102780008DF80750012201A90448FFF7DFFB00285C
:1027900001D0FEF700FB7CBD00280040100900209E
:1027A00010B586B000241748009401940294039455
:1027B00004941349059401604721C0E90114632181
:1027C000C0E9031480218161FFF7D5FC08B1FEF751
:1027D000E2FA4FF48050009069460A48FFF733FD53
:1027E00008B1FEF7D8FA049404A906480594FFF747
:1027F0009AFC002801D0FEF7CEFA06B010BD00000A
:1028000000080040240900200C4810B50A49016066
:102810004FF4E1314160002181600C22C160C0E9C8
:1028200004128161C161FFF74AFE002803D0BDE8B0
:102830001040FEF7B0BA10BD003801406409002016
:10284000FEE770470907090E002806DA00F00F00BE
:1028500000F1E02080F8141D704700F1E02080F8BE
:102860000014704730B40021084B0A46002003EBE7
:10287000C004401CC0B262548028F8D3491CC9B2BD
:102880000829F3D330BC00F0E9B800003000002084
:1028900010B57F2816D83F2914D80723A3EBD103FE
:1028A00001F00701C1F107040121A140064CDBB290
:1028B00004EBC000002AC25CC9B201D00A4300E0A8
:1028C0008A43C25410BD00003000002070B5614C36
:1028D000012280212046FEF728FE012240212046C9
:1028E000FEF723FE012211032046FEF71EFE012201
:1028F000950329462046FEF718FE574E0122042173
:102900003046FEF712FE012208213046FEF70DFE8A
:10291000012210213046FEF708FE01222021304618
:10292000FEF703FE012240213046FEF7FEFD0122A4
:1029300080213046FEF7F9FD012211462046FEF7C0
:10294000F4FD012202212046FEF7EFFD0122294677
:102950002046FEF7EAFD0122D1032046FEF7E5FD01
:10296000012220212046FEF7E0FD00222021204602
:10297000FEF7DBFD6420FEF7DDFC0122202120466E
:10298000FEF7D3FD0021AE2000F0CEF80021D520C7
:1029900000F0CAF80021502000F0C6F80021A8205D
:1029A00000F0C2F800213F2000F0BEF80021D32043
:1029B00000F0BAF80021084600F0B6F800214020E7
:1029C00000F0B2F800218D2000F0AEF800211420B4
:1029D00000F0AAF80021202000F0A6F80021022033
:1029E00000F0A2F80021A12000F09EF80021C020F4
:1029F00000F09AF80021DA2000F096F80021122069
:102A000000F092F80021812000F08EF80021EF20E4
:102A100000F08AF80021D92000F086F80021F1208A
:102A200000F082F80021DB2000F07EF80021302049
:102A300000F07AF80021A42000F076F80021A6200A
:102A400000F072F80021AF2000F06EF8BDE8704091
:102A5000FFF708BF000C01400008014070B5104EA0
:102A6000002505F1B000C0B2002100F05DF80021A2
:102A7000084600F059F80021102000F055F8002415
:102A800006EBC4000121405D00F04EF8641CE4B286
:102A9000802CF5D36D1CEDB2082DE2D370BD000083
:102AA000300000202DE9F04F203A98460D4683462D
:102AB000894602F0FF0A00262EE0B8F10C0F08D07C
:102AC000174901EB0A100027845D200607D5099AF3
:102AD00008E014490AEB4A0001EB8000F3E709988B
:102AE00090B1002229465846FFF7D2FE6D1C6006C1
:102AF000EDB2040EA5EB0901414507D10BF1010030
:102B00004D4600F0FF0B05E00122EBE77F1CFFB212
:102B1000082FDAD3761CF6B24645CED3BDE8F08F47
:102B2000F8420008843E00082DE9F0410C46FEF70B
:102B3000DFF8144D4FF400560CB1012200E00022E2
:102B400031462846FEF7F1FC4FF48054002221461E
:102B50002846FEF7EAFCA700002239462846FEF781
:102B6000E4FC012239462846FEF7DFFC012221461B
:102B70002846FEF7DAFC31462846BDE8F04101223E
:102B8000FEF7D3BC000C01407047010901EB810145
:102B900000F00F0000EB4100C0B27047002102E0DE
:102BA0000A38C0B2491C0A28FAD2090740EA116063
:102BB00070472DE9F04104460025C07B627BA37B72
:102BC00042E0012A16D0032A14D0052A12D0072A7F
:102BD00010D0082A0ED00A2A0CD00C2A0AD0042AB7
:102BE00010D0062A0ED0092A0CD00B2A0AD0022AAD
:102BF0000DD028E01F2B0CD30C2A05D1012213463F
:102C0000401C20E01E2B04D30123521C1BE01C2B74
:102C100002D203F1010316E011D183B29E0710D155
:102C20006426B3FBF6F706FB173636B94FF4C876C1
:102C3000B3FBF6F706FB17331BB91D2303E01D2B6F
:102C400001D1032201236D1C8D42BAD3D1B2E073AE
:102C50006173DAB2A27300F04EF82073BDE8F08120
:102C600070B50546FEF766FC04464FF47A7606E03A
:102C7000FEF760FC001BB04201D9032070BD28683C
:102C800040688006F4D52868416841F01001416031
:102C9000002070BD70B505460068416821F0100144
:102CA0004160FEF747FC04464FF47A7606E0FEF7F3
:102CB00041FC001BB04201D9032070BD2868406868
:102CC0008006F4D5002070BD0068016A406A80B2B9
:102CD00040EA01407047006881698AB2C1698BB2DD
:102CE000816989B28A4203D0C06961F31F4070478D
:102CF00043EA02407047F0B56426C1EBC1030925E1
:102D0000B700072403EB01130329B3FBF5F100F52A
:102D1000FA60114401440AD2401EB0FBF6F201EB06
:102D20009001B0FBF7F0891A0844001D08E0B0FBE1
:102D3000F6F201EB9001B0FBF7F0891A0844801C11
:102D4000B0FBF4F104FB1100C0B2F0BD70B50D464C
:102D500006460024FFF784FF48B93168280C086252
:102D60003168A8B248623046FFF794FF00B10124F1
:102D7000204670BD70B50D4606460024FFF770FF73
:102D800048B93168280C88613168A8B2C8613046FA
:102D9000FFF780FF00B10124204670BD7047FEF7A9
:102DA000CFBB30B593B028216846FDF739FB14211D
:102DB0000AA8FDF735FB00240F9410941194092004
:102DC0004FF4803112948DE8130001200225CDE9E3
:102DD000060504904FF4E010CDE908106846FEF7B0
:102DE0002BFE0F20CDE90A056802CDE90C40022137
:102DF0000AA80E94FEF716FD03200F9028021090EB
:102E0000800111900FA8FEF799FC13B030BD0000AF
:102E10000D48016841F00101016041680B4A114011
:102E2000416001680A4A11400160016821F4802173
:102E30000160416821F4FE0141604FF41F0181608F
:102E40000449C00308607047001002400000FFF80A
:102E5000FFFFF6FE08ED00E00148FFF76DBA000045
:102E600024090020F0B50268164C174D174E4FF09C
:102E70008047A04205D0B84203D0A84201D0B0425A
:102E800003D122F070034A681A43A04205D0B84229
:102E900003D0A84201D0B04203D122F44073CA68E3
:102EA0001A434B6922F08002134303608A68C262AE
:102EB0000A688262A04201D109690163012141616E
:102EC000F0BD0000002C014000040040000800405C
:102ED00010B5846842EA032224F47F440A43224363
:102EE000826010BD826822F070020A4342F007013E
:102EF0008160704710B5046A036A23F0010303621E
:102F0000836923F0F00343EA021324F00A020A4320
:102F10008361026210BD10B5036A23F010030362DF
:102F20008469036A24F4704444EA023223F0A00363
:102F300043EA01118261016210BD00002DE9F041F8
:102F4000044600680169E26821F4405111430161BF
:102F5000A16820690143606901432068C26841F2A9
:102F60000C639A430A43C26020684169A26921F454
:102F70004071114341614C492068642632278842E0
:102F80003CD1FEF713FD00EBC00101EB00106168BE
:102F90008900B0FBF1F5FEF709FD00EBC00101EB84
:102FA00000106168B8468900B0FBF1F0B0FBF6F0A4
:102FB0006FF01801484305EB800107EB0110B0FBEF
:102FC000F6F000F0F005FEF7F1FC00EBC00101EBBC
:102FD000001061688900B0FBF1F0B0FBF6F005EB82
:102FE0000015FEF7E3FC00EBC00101EB0010616887
:102FF0008900B0FBF1F7FEF7D9FC3BE0FEF7C6FC19
:1030000000EBC00101EB001061688900B0FBF1F535
:10301000FEF7BCFC00EBC00101EB00106168B84694
:103020008900B0FBF1F0B0FBF6F06FF018014843F7
:1030300005EB800107EB0110B0FBF6F000F0F005A6
:10304000FEF7A4FC00EBC00101EB001061688900F1
:10305000B0FBF1F0B0FBF6F005EB0015FEF796FCC7
:1030600000EBC00101EB001061688900B0FBF1F7D3
:10307000FEF78CFC00EBC00101EB001061688900D9
:10308000B0FBF1F0B0FBF6F06FF01801484307EB2E
:10309000800108EB0110B0FBF6F0216800F00F0092
:1030A00028448860BDE8F08100380140FEE7000058
:1030B0000FB4084B10B504A902AA039800F022F837
:1030C000044602A9002000F0BEF9204610BC5DF8BD
:1030D00014FB00004734000802E008C8121F08C1B2
:1030E000002AFAD170477047002001E001C1121F89
:1030F000002AFBD1704700000149086070470000BA
:103100002C0000202DE9FF4F8BB088460546002695
:1031100006E025280BD0DDE90D1290476D1C761CCA
:1031200028780028F5D10FB03046BDE8F08F002494
:10313000A146A2460122AE4900E0044315F8013F32
:10314000203B02FA03F00842F7D128782A2810D051
:103150006FF02F022878A0F13001092915D809EB6A
:10316000890102EB410144F0020400EB01096D1CEE
:10317000F0E758F8041B5FEA010903D544F4005452
:10318000C9F1000944F002046D1C28782E2817D1DB
:1031900015F8010F44F004042A280ED06FF02F0216
:1031A0002878A0F1300109290AD80AEB8A0102EB3C
:1031B000410100EB010A6D1CF2E758F804AB6D1CED
:1031C00028786C280FD006DC4C2817D068280DD042
:1031D0006A2814D104E0742810D07A280FD10DE0A9
:1031E00044F400140AE044F4801401E044F4401470
:1031F0006978814202D104F580146D1C6D1C287819
:10320000692865D006DC00288DD0632827D0642883
:1032100006D15DE06E2808D073282AD0752877D0B3
:10322000DDE90D129047761CE0E0C4F3025002285D
:1032300009D003280DD0D8F8001004280DD00E6056
:1032400008F10408D2E0D8F80010F217C1E90062D2
:10325000F6E7D8F800100E80F2E70E70F0E718F8E5
:10326000041B8DF8001000208DF80100EB460120B2
:1032700003E058F804BB4FF0FF3061074FF0000740
:1032800001D40AE07F1C57450DDA8742FADB1BF8B0
:1032900007100029F6D106E07F1C8742FCDB1BF8F3
:1032A00007100029F8D1DDE90D23A9EB07008146BD
:1032B000214600F0B1F83044C61904E0DDE90D12F2
:1032C0001BF8010B90477F1EF8D22146484688E044
:1032D00058F8040BC4F302514FF00A0B032900D134
:1032E00000B2042900D140B2002802DA40422D2168
:1032F00002E0210505D52B218DF82410012104E0E1
:1033000006E0E10710D02021F6E708AF089113E0AE
:1033100058F8040BC4F302514FF00A0B032900D1F3
:1033200080B2042900D1C0B20021EEE75946FDF772
:1033300043FB303107F8011D0028F7D1ADEB070042
:1033400000F1200B600702D524F4803401E04FF037
:10335000010ADA4502DDAAEB0B0000E000208246FC
:1033600000EB0B0108980144A9EB01000A90E0036F
:1033700006D4DDE90D2321460A9800F04DF80644F5
:103380004FF0000908E009A911F80900DDE90D1264
:10339000904709F10109761C08998945F3DBE003A0
:1033A0000CD5DDE90D2321460A9800F035F80644D6
:1033B00004E0DDE90D1230209047761CBAF10001DF
:1033C000AAF1010AF5DC05E0DDE90D1217F8010BA1
:1033D0009047761CBBF10001ABF1010BF4DC0A98BD
:1033E0002146DDE90D2300F005F806446D1C97E643
:1033F000092801002DE9F041044600251E46174624
:10340000880404D405E039462020B0476D1C641EB2
:10341000F9D52846BDE8F0812DE9F04104460025A4
:103420001E469046C80301D5302700E020278804B7
:1034300004D505E041463846B0476D1C641EF9D5F9
:103440002846BDE8F0810A68531C0B601070704775
:1034500088B0002426462546FEF77AF8FFF7A1FC3F
:10346000FFF7E6F8FFF796F8FFF7CEF9FFF756F902
:10347000FFF796F9FFF7B6F801221102FE48FEF7B2
:1034800054F8FE480068C16841F00101C160FFF7CF
:103490001DFAFFF7E7F94FF0100B00215B46F8A289
:1034A0000846CDF800B000F073FCFFF7D7FAF348F8
:1034B000FEF7A7FEDFF8D4836D1C4FF48077EDB2E2
:1034C00039464046FEF72CF8012805D039464046DB
:1034D000FEF726F8D0B122E00A20FDF72BFF39468F
:1034E0004046FEF71DF8012819D1C6B9641C012613
:1034F000E4B2FFF7B7F9052C02D0012C02D00EE0A0
:10350000002416E0E2490020C8703DE10A20FDF7E2
:1035100011FF39464046FEF703F800B9002644B1D2
:10352000022C7DD0032C7CD0042C7BD0012CECD041
:103530004CE20021D8461023D1A20846CDF800B0B5
:1035400000F026FCDFF84CA34FF4005949465046E2
:10355000FDF7E6FF30B149465046FDF7E1FF01288F
:1035600012D01EE00A20FDF7E5FE49465046FDF761
:10357000D7FFB0B91023C8A219460220CDF80080A9
:1035800000F006FC012208E01023C5A21946022023
:10359000CDF8008000F0FCFB00223946B648FDF76C
:1035A000C4FF322D01D9002597E0022D7DD1BE4800
:1035B000FDF760FE3221BC48FDF7C4FDBA48FDF7B7
:1035C0006CFC800571D5B848FDF769FCB04FB88038
:1035D000B888FDF76FF9B54AB54BFDF770F8B54AF5
:1035E000B54BFDF7DEF8FDF79FF981B24FF47A7A1B
:1035F000B1FBFAF9B888FDF75DF9AC4AAC4BFDF7C1
:103600005EF8AC4AAC4BFDF7CCF8FDF78DF981B212
:10361000B1FBFAF20AFB12100090FDF74BF902E041
:103620008CE0A4E0A5E0A34AA44BFDF748F80746C8
:103630008A464846FDF73EF93A465346FCF798FF5E
:1036400000229F4BFDF735F800229E4BFDF737F81F
:103650009D4A9E4BFDF7A5F8FDF792F99C49074658
:10366000884201DB0F4603E0B7F5000F00DA0027C0
:103670004A4698A101A8009BFFF71AFD102301AA52
:1036800019462420CDF8008000F082FB3846FDF773
:1036900037F90746C2B293A393A101A8FFF708FD2B
:1036A0001023012101AA4E2000E016E0CDF8008091
:1036B00000F06EFBF8B200EB400080006321B0FB2D
:1036C000F1F08B4900EB800001EB80020A2301211D
:1036D0006E20CDF8008000F027FA002207A9854867
:1036E000FEF75DFB002206A98248FEF731FB9DF83C
:1036F0001A009DF81B2000909DF819307EA101A8AA
:1037000002F5FA62FFF7D4FC4746102301AA2021F4
:103710000020CDF8008000F03BFB9DF81E000090DB
:103720009DF81D309DF81C2077A101A8FFF7C0FC73
:103730001023302101AA0020009715E076A101A8EE
:10374000FFF7B6FC10235F4601AA19461846CDF8CC
:1037500000B000F01DFB73A101A8FFF7A9FC102326
:1037600001AA202100970DE000F012FB2EE171A1CB
:1037700000E073A101A8FFF79BFC102301AA1946E2
:10378000CDF800B01020EFE7414FF87800283FF463
:1037900091AE38694FF00009401C3861F868401C50
:1037A000F86087F80390B868402818D26748FDF79A
:1037B00061FD32216548FDF7C5FC6448FDF76DFBEE
:1037C000800503D56148FDF76AFBB880B888604A78
:1037D0000104B86842F82010401CB8606AE6274827
:1037E000FEF71BFD5A49BA464022A1F58070C7F882
:1037F0000890FCF797FC402000F0F0F9554F0120AD
:10380000A7F1200E5349603101EB800151F8042CDF
:103810000EEB000102F0FF0C11F8018CC44504D935
:1038200002EBD272520801F8012C3B1811F8012C5E
:1038300013F801CC624511D3DFF818C13A54ACF14A
:10384000A00C0CEB800C9AF800804CF8048C802AB9
:1038500004D3802203F8012C01F8012C401CC0B2D3
:103860002128CFD33B49A1F1200000F0B7F8D04682
:103870009AF8011070E00000000C014024090020BB
:10388000C0B6D1C0D2F4CFE400000000000801406F
:103890000800002000100140B2A5B7C500000000DC
:1038A000BEB2D2F400000000B008002085EB51B891
:1038B0001E851A40FCA9F1D24D6210404D62503F66
:1038C00000000A4000005940D0CCCCCCCCCCEC3F1E
:1038D0000000C842B5E7D1B93A25642E25303364DB
:1038E0005600000025000000253364257300000009
:1038F000F852000810090020253464C4EA25326417
:10390000D4C2253264C8D5002532643A25303264E9
:103910003A25303264000000B0E6B1BEBAC53A566E
:10392000312E30004C6F76656C657373696E672E4F
:103930002E2E0000C6B5C6D7CFD4CABE00000000E8
:10394000B2A8D0CECFD4CABE00000000E00800204C
:10395000B0070020D0040020DAF8100088420ED909
:103960001C4A0020C8F81090395C21B152F8203070
:103970000BB9491E3954401CC0B22028F4D398F822
:103980000210D8F80C0088420CD9124A002080326C
:10399000C8F80C90115C09B1491E1154401CC0B20A
:1039A0002028F7D30B4A002052F8201011B1491EED
:1039B00042F82010401CC0B22028F5D30648FEF77C
:1039C00013FC88F80390012C3FF408AFFFF746F88A
:1039D00070E5000030040020240900202DE9F35F89
:1039E0008B4600240098005D4508402D00D34025FB
:1039F000E8080ED04A490020FF2301EB441205E0FD
:103A000013541118401C0B720B74C0B2B0EBD50FDD
:103A1000F6D3680723D00120022125F0070601EB29
:103A2000840A00EB84094FEA84086D1C15E0C6F196
:103A30004007F9B208F0FF000122FEF729FFF9B2B2
:103A400009F0FF000122FEF723FFF9B20AF0FF00A0
:103A50000122FEF71DFF761CF6B2AE42E7D31BF83B
:103A60000400022707EB5005402D00D34025C5F187
:103A700040064FEA8409F1B209F0FF000122FEF787
:103A800007FF012000EB840AF1B20AF0FF000122D7
:103A9000FEF7FEFE07EB8408F1B208F0FF000122FA
:103AA000FEF7F6FEC5F13F07F9B209F0FF0001226B
:103AB000FEF7EEFEF9B20AF0FF000122FEF7E8FE83
:103AC000F9B208F0FF000122FEF7E2FE402D17D206
:103AD000002513E009F0FF0000222946FEF7D8FE7A
:103AE0000AF0FF0000222946FEF7D2FE08F0FF0090
:103AF00000222946FEF7CCFE6D1CEDB2AE42E9DC99
:103B000000980849005D085520311BF8040008554D
:103B1000641C202CFFF666AFBDE8FC5FFEF79EBF7D
:103B200030000020F00400202DE9FF4F83B08346D1
:103B30000C468A4610980BEB03010093802903D9A9
:103B4000C3F18001C9B2009121188146402903D9EF
:103B5000C0F1400101F0FF09410700D0012101EB54
:103B6000D00002905FEA497000D0012000EBD9003C
:103B7000019000202BE0002723E00299002508FB9C
:103B800001F005993944465C300601D5012200E078
:103B9000002221465846FEF77BFE641C7006E4B204
:103BA000060EA4EB0A01494505D10BF1010054466C
:103BB00000F0FF0B03E06D1CEDB2082DE4D37F1C79
:103BC000FFB201988742D8D308F10100C0B2009932
:103BD00080468842CFD307B0BDE8F08F2DE9F0478B
:103BE000814600243EE0214850F8240001B205142B
:103BF0000846FCF745FE0621FCF7AEFC6FF00E0709
:103C00003946FCF7A9FC06462846FCF739FE062192
:103C1000FCF7A2FC3946FCF79FFC05464846FCF73A
:103C200038FE8846074629460846FCF763FC0546E9
:103C300031460846FCF75EFC2946FCF703FCFCF71E
:103C40008CFE00F0F9F843463A46FCF7AAFDFCF773
:103C500097FE1021FCF780FCFCF739FE044941F87F
:103C60002400641C4C45BED3BDE8F087B00600209C
:103C7000300500202DE9FC5F8246DDF830909B4640
:103C800090460C4600915FEA497000D0012000EB9D
:103C9000D90000FB0BF0C0B201903A48BBF10C0F09
:103CA00008D0BBF1100F6BD1B9F1100F68D1476884
:103CB000002513E0B9F10C0F62D10768F8E717F897
:103CC000150098F80010884206D107EB450098F8D7
:103CD00001104078884207D06D1CADB23846FCF721
:103CE000AAFBB5EB500FEAD33846FCF7A4FBB5EBC3
:103CF000500F45D2002740E0BBF10C0F03D0BBF1C1
:103D0000100F09D00FE0B9F10C0F0CD11E4905EBD3
:103D1000450001EBC00005E0B9F1100F03D11B48CD
:103D200000EB4510C65D4FF00008300604D5E1B247
:103D30000AF0FF000D9A05E00D9898B10022E1B25B
:103D40000AF0FF00FEF7A4FD7006060E641C009842
:103D5000A4B2211A494507D10AF101001FFA80FADD
:103D6000009C08E00122EAE708F1010000F0FF08EA
:103D7000B8F1080FD9D37F1CFFB201988742BBD39B
:103D8000BDE8FC9F00000020E8480008384D00080E
:103D90002DE9FC5F04468046DDF830B01D4617462D
:103DA0000E468A46002081461DE0B9F1000F1FD063
:103DB000A8EB050080304FF00009A04203DA70192B
:103DC000801C86B24446AAEB05004030B0420DDBB1
:103DD000CDE9005B2B463A4631462046FFF74AFFC5
:103DE000601984B2BF1C3A78002ADED1BDE8FC9F7E
:103DF000802A01D90120D6E7A8EB55008030A042E7
:103E000002DA701986B24446AAEB05004030B0428F
:103E1000ECDB0D2A0BD0F1B2E0B22B46CDF800B0AE
:103E2000FEF740FE04EB550084B27F1CDBE77019FF
:103E300086B244467F1CF5E72DE9F04106460F4661
:103E4000FCF785FE041E0D4618BF0120284320F014
:103E50000040C0F17F6000F1E040C00F0ED0301C88
:103E600018BF0120384320F00040C0F17F6000F10E
:103E7000E040C00F04BF0120FFF73EF9204629466D
:103E8000BDE8F0810000000000000000000000001C
:103E9000000000003F400000000000000000300073
:103EA000400030004000000009000BC03D000BC086
:103EB0003D00090018C024407FE02240318000000E
:103EC000180024C01B000D803240018003801C407C
:103ED00027401C80074000401000600000000000E8
:103EE000000000000000000000001F802040402073
:103EF0000000402020401F80000000000900060054
:103F00001F80060009000000040004003F80040038
:103F1000040000000010006000000000000000002D
:103F2000040004000400040004000000000000403D
:103F30000000000000000000002001C00600380062
:103F4000400000001F802040204020401F800000D3
:103F5000000010403FC000400000000018C0214099
:103F6000224024401840000010802040244024407B
:103F70001B80000002000D0011003FC00140000046
:103F80003C80244024402440238000001F802440A3
:103F900024403440038000003000200027C0380057
:103FA000200000001B802440244024401B8000008F
:103FB0001C0022C0224022401F80000000000000A0
:103FC0000840000000000000000000000460000045
:103FD00000000000000004000A00110020804040A2
:103FE0000900090009000900090000000000404024
:103FF000208011000A000400180020002340240043
:10400000180000001F802040274029401F4000006A
:10401000004007C039000F0001C0004020403FC0F1
:10402000244024401B8000001F802040204020406E
:104030003080000020403FC0204020401F80000012
:1040400020403FC024402E4030C0000020403FC0F0
:1040500024402E00300000000F001080204022403D
:104060003380020020403FC0040004003FC02040D5
:10407000204020403FC02040204000000060202021
:1040800020203FC02000200020403FC024400B00E3
:1040900030C0204020403FC020400040004000C0D1
:1040A0003FC03C0003C03C003FC0000020403FC078
:1040B0000C4023003FC020001F80204020402040B3
:1040C0001F80000020403FC0244024001800000052
:1040D0001F802140214020E01FA0000020403FC061
:1040E0002440260019C0004018C02440244022402B
:1040F00031800000300020403FC0204030000000F0
:1041000020003F80004000403F80200020003E0013
:1041100001C0070038002000380007C03C0007C07D
:1041200038000000204039C0060039C0204000009F
:104130002000384007C0384020000000304021C037
:104140002640384020C00000000000007FE04020F2
:1041500040200000000070000C00038000400000C0
:104160000000402040207FE0000000000000200010
:10417000400020000000000000100010001000109F
:1041800000100010000000004000000000000000CF
:10419000000002800540054003C0004020003FC0F1
:1041A00004400440038000000000038004400440F9
:1041B0000640000000000380044024403FC000404F
:1041C000000003800540054003400000000004405B
:1041D0001FC0244024402000000002E0055005508C
:1041E0000650042020403FC00440040003C00040AB
:1041F0000000044027C00040000000000010001034
:10420000041027E00000000020403FC001400700EC
:1042100004C00440204020403FC000400040000057
:1042200007C0040007C0040003C00000044007C02A
:104230000440040003C00040000003800440044028
:1042400003800000041007F00450044003800000C5
:10425000000003800440045007F00010044007C031
:104260000240040004000000000006400540054034
:1042700004C00000000004001F8004400040000053
:10428000040007800040044007C00040040007000D
:1042900004C0018006000400060001C0070001C040
:1042A00006000000044006C0010006C004400000F3
:1042B0000410071004E00180060004000000044020
:1042C00005C00640044000000000000004007BE040
:1042D00040200000000000000000FFF0000000008F
:1042E000000040207BE0040000000000400080004F
:1042F00040002000200040000000000000000000FE
:1043000000000000000000000000000000001FCCC2
:10431000000C0000000000000000080030006000F9
:104320000800300060000000022003FC1E20022074
:1043300003FC1E200220000000000E1811043FFFA5
:1043400010840C78000000000F0010840F3800C0AB
:10435000077818840078000000780F8410C41124B6
:104360000E9800E400840008080068007000000057
:10437000000000000000000000000000000007E056
:104380001818200440020000000040022004181801
:1043900007E00000000000000240024001800FF032
:1043A00001800240024000000080008000800FF881
:1043B00000800080008000000001000D000E000061
:1043C000000000000000000000000080008000806D
:1043D00000800080008000800000000C000C0000C5
:1043E000000000000000000000000006001800604F
:1043F0000180060018002000000007F008081004E3
:104400001004080807F000000000080408041FFC5E
:10441000000400040000000000000E0C1014102422
:10442000104411840E0C000000000C18100411043C
:10443000110412880C700000000000E00320042426
:1044400008241FFC0024000000001F9810841104A1
:104450001104108810700000000007F00888110493
:10446000110418880070000000001C00100010FCEF
:1044700013001C001000000000000E3811441084CE
:10448000108411440E38000000000700088C10440E
:104490001044088807F00000000000000000030C32
:1044A000030C0000000000000000000000010106F5
:1044B0000000000000000000000000800140022019
:1044C000041008081004000002200220022002202C
:1044D000022002200220000000001004080804103E
:1044E000022001400080000000000E001200100CAD
:1044F000106C10800F00000003E00C1813E414246B
:1045000017C4082807D000000004003C03C41C4066
:10451000074000E4001C000410041FFC11041104F7
:1045200011040E880070000003E00C181004100441
:10453000100410081C10000010041FFC10041004CC
:104540001004080807F0000010041FFC11041104F7
:1045500017C410040818000010041FFC11041100F7
:1045600017C010000800000003E00C18100410042D
:1045700010441C780040000010041FFC10840080D0
:10458000008010841FFC10040000100410041FFCA5
:1045900010041004000000000003000110011001CD
:1045A0001FFE10001000000010041FFC1104038007
:1045B0001464181C1004000010041FFC10040004F4
:1045C00000040004000C000010041FFC1F0000FC8D
:1045D0001F001FFC1004000010041FFC0C0403004B
:1045E00000E010181FFC100007F008081004100469
:1045F0001004080807F0000010041FFC108410804D
:10460000108010800F00000007F0081810241024FC
:10461000101C080A07F2000010041FFC110411000E
:1046200011C011300E0C000400000E1C1104108487
:10463000108410441C3800001800100010041FFCE7
:10464000100410001800000010001FF810040004EF
:10465000000410041FF8100010001E0011E0001CE0
:10466000007013801C0010001FC0103C00E01F00F1
:1046700000E0103C1FC000001004180C163401C0EC
:1046800001C01634180C100410001C00130400FCA8
:1046900013041C00100000000804101C1064108497
:1046A00013041C04101800000000000000007FFE2E
:1046B0004002400240020000000030000C00038075
:1046C0000060001C000300000000400240024002A5
:1046D0007FFE0000000000000000000020004000FD
:1046E0004000400020000000000100010001000126
:1046F0000001000100010001000040004000200016
:1047000000000000000000000000009801240144A7
:104710000144014400FC000410001FFC0088010457
:10472000010400880070000000000070008801048F
:1047300001040104008800000000007000880104EA
:10474000010411081FFC0004000000F801440144AA
:104750000144014400C800000000010401040FFCF2
:104760001104110411001800000000D601290129CC
:10477000012901C90106000010041FFC008401008A
:104780000100010400FC000400000104190419FCEC
:10479000000400040000000000000003000101010B
:1047A000190119FE0000000010041FFC0024004045
:1047B00001B4010C010400000000100410041FFCEF
:1047C0000004000400000000010401FC01040100D9
:1047D00001FC0104010000FC010401FC0084010053
:1047E0000100010400FC0004000000F801040104C1
:1047F0000104010400F80000010101FF008501042B
:1048000001040088007000000000007000880104AE
:104810000104010501FF00010104010401FC008401
:104820000104010001800000000000CC01240124EB
:10483000012401240198000000000100010007F894
:104840000104010400000000010001F8000400045C
:104850000004010801FC0004010001800170000C4B
:10486000001001600180010001F0010C003001C066
:104870000030010C01F0010000000104018C007403
:104880000170018C01040000010101810171000E21
:10489000001801600180010000000184010C013456
:1048A00001440184010C0000000000000000000031
:1048B00001003EFC40024002000000000000000039
:1048C000FFFF0000000000000000400240023EFC2C
:1048D0000100000000000000000060008000800077
:1048E000400040002000200040104EF0E0905E901C
:1048F00040F0449058F04890EC904AF04810000086
:1049000000204C20544044404480451046107FF025
:10491000440044000400000008004BF06AA05AA0C4
:104920004AA0CAA04AA05AA06AA04BF00800000002
:104930002480C5005FF0650044802FF0CAA04AA023
:104940006AA04AA04FF0000000107FE00900F9F0D3
:1049500008207FC048104FA0484089A08E1000005A
:1049600020402080214026402840FFF0284026405B
:10497000214020802040000004000400F580968043
:104980009480948094809490F49004E0040000005B
:1049900000004FE0421042104210421042104210FC
:1049A00042107E1000700000841047E0001020903C
:1049B0002C903490E4902FF02490249020900000CC
:1049C00011001110FFF0120025103550ADD06720F6
:1049D0002D2035D0251000003FE049202A20FFE09F
:1049E0002A20492000107FE048004FF08800000096
:1049F0000200421042607F804200420042007FF08D
:104A000042004200020000002280CA804AC06AA020
:104A10004A803E90CA904BF06A804A8042800000F3
:104A2000120024004FF090000A002A802A50FA1049
:104A30002FF02A000A00000000001F801100110062
:104A40001100FFF01100110011001F800000000094
:104A50000200421042607F804200420042007FF02C
:104A60004200420002000000021012109220524048
:104A700012801F001280524092201210021000007B
:104A800011001600FFF0141002207FC0400040000B
:104A90007FE000100070000088004FF0002044000C
:104AA00057F05540FD405540555057F04400000028
:104AB0002010221026202BC0B200620022002BE022
:104AC00026102310207000003FC024802480248002
:104AD000FFE02490249024903F900010007000008C
:104AE0004420224002003FE004100810FFD01010C4
:104AF00020903F900030000000107FE040104210F6
:104B0000421042105FF042104290425040100000AC
:104B10001010FF50955095509550DFF0B5509550BE
:104B20009550FF5010100000040008003FF0C00036
:104B30007FE0444044A07F1084C0842004F0000043
:104B40004420224000103FE02410271024A0FC4005
:104B500024A027103010000044107FE044004400DF
:104B60007FF04400001011102220C4401880000083
:104B700008907B100820FF40488049009F90B0209B
:104B8000D7C090209F900000080088004FE00040B0
:104B90005400C5F07D5045507D50C5F054000000D4
:104BA00001107C90545057F054105410541057F08A
:104BB00054507C90011000000820084049804800B3
:104BC00048104FF048004800490008800860000085
:104BD000440057F0FD4057F054002A80CA905FF01F
:104BE0006A800FC0020000001110FFF012006BF08D
:104BF0005D5049507DF089509D50ABF00900000098
:104C000010109FE05200121013F004000810F7A0DB
:104C100010401FA0101000000010401047F040107E
:104C200040107FF04210421042104210001000006D
:104C3000300020E0AE806A802A80EBF02A806A8013
:104C4000AEA020E03000000011001600FFF01200BE
:104C500040505F50F56055C0F5605F504050000017
:104C600010101210121013E0122012201020FF005A
:104C700010C090205070000008801080E7802480D1
:104C8000248024803FF02480248024802080000021
:104C9000001000607F804900490049004900491028
:104CA00049107FF00000000000007FF04420442005
:104CB000442044204420442044207FF00000000091
:104CC0000090FB10A950A950A950AFF0A950A950CD
:104CD000A950F910001000002090FFA02A802A801F
:104CE000FFA0209000107FE0490049107FF00000F5
:104CF0000010001000100010FFF00810081008103D
:104D00000810081000100000400040004000400063
:104D10007FF0400048004400420041804000000015
:104D200009001100E100210021003FF021002100D5
:104D300021002100010000002002200227BE2022C5
:104D4000F0222FBE202220A22F22223EF32222A2D6
:104D5000223E2202200200000000000443044D080D
:104D6000411041204140418241017FFE410041000C
:104D7000410041000100000002000200220022FF69
:104D80002A922692A2926292229226922A9222FF3E
:104D90002200020002000000040209043118E16050
:104DA00037FF29202118280013FFE2492249324900
:104DB0002A4923FF2000000000017FFE04800480B8
:104DC000FCFF040100063FF82401278224644418F4
:104DD000C464478200010000000808100820084051
:104DE00008900B100C10FFFF0C100B1008900840DF
:104DF00008200810000800000100010001007D608B
:104E000045A04520452045204522452145227D3CA1
:104E100001000100010000000000000047FC410209
:104E200041024102410241024102410241027F022C
:104E30000002001E0000000002000202420433F8DB
:104E400000042022222226223A22E2222FFE2222BF
:104E50002222222220220000082008220841FFFEF0
:104E600008800A4122412A52A66A63C42244264A83
:104E70002A7222410240000000003FFC04442484C6
:104E80001504FFF4150424C500063FF82200220093
:104E900023FF420002000000010041014102410CD9
:104EA0007FF0410041004100410041007FFF41008F
:104EB000410041000100000010802090C490449007
:104EC0006498549644905F902492C49144BE649038
:104ED000549040904080000000400880110023FF63
:104EE000CC0002401250124C1240FE42124113FEFE
:104EF0001240124002400000000000000FF00820A5
:104F0000082008200820FFFF08200820082008208B
:104F10000FF0000000000000010041014102410CBF
:104F20007FF0410041004100410041007FFF41000E
:104F30004100410001000000008100810882888258
:104F40006884088808B00FC008B008882884C88220
:104F50000882008100810000082008C00B00FFFFCC
:104F6000090008C100067FF84000400040007FFCB7
:104F700000020002001E00000200420033FE000496
:104F8000000822002AFF2AA82AA8FEA82AAA2AA9DD
:104F90002AFE22000200000020002001210123023D
:104FA000250C39F0A1006100210021FE250123011B
:104FB0002181200F20000000000000001FF81110C8
:104FC000111011101110FFFE1111111111111111F9
:104FD0001FF90001000F000008200620407E3380EA
:104FE000010001003FFC02020402FFF2080210224D
:104FF0001FE20002001E0000000100067FF84002D0
:1050000041024102410241025FFE4102410241224E
:10501000411A4102400200000400040104017DF530
:1050200055555555555555FF5555555555557DF5BE
:1050300004010401040000000080010006001FFFBD
:10504000E00000003FFF2102210421007F82417126
:10505000C10C4102011F000008200620403E30C064
:10506000030100061FF8110111C21134FF081114C9
:10507000116215811801000001014102410C7FF00D
:10508000410041007FFF410041000101042108422D
:10509000108461080630000002093E710202FEF22F
:1050A0001204127802014FF2480458186BE04808C5
:1050B00048044FF2400100000200420033FE0004A9
:1050C00002082A00A6FF62923E9222923E926292CB
:1050D000A6FF2A00020000000002004200227F1A00
:1050E000490249FE49024902490249FE49027F0A32
:1050F0000012006200020000020402084210426036
:1051000042004202420143FE42004200420042404D
:1051100042200210020C000022002AFF2AA8FEAA48
:105120002AA92AFE220004901492E49127FE2C90D2
:10513000349007F80080000008420841FFFE088014
:10514000090041006AFF5C924892FEFE88929C92A0
:10515000AAFF0900010000001002100C9FF0520489
:10516000120213FC120104021B84E868081008688C
:105170000F8408020801000000024002400243FEC2
:105180004002400240027FFE4102410241024102D0
:10519000410240020002000004001800107C574049
:1051A000354015401540F5FF15401540354857442A
:1051B0001078140018000000082008C00B00FFFF42
:1051C0000900289127D2F554255825702558F55403
:1051D00027D2201100010000080008040906090474
:1051E00009FC0908090808080800FFC00830080879
:1051F00088046802081F0000002004201820E3E053
:1052000022202220222022203FFF22202220222092
:10521000222020200020000000010002000C7FF06E
:10522000444044404440444044404440444244415B
:105230007FFE0000000000000000000000007FFF73
:1052400041024102410241024102410241027FFF0B
:1052500000000000000000000000002200427D92DB
:1052600054925492549257FE5492549254927C9277
:10527000008200020000000000112012FFF42490C0
:1052800024902498FFF52012000C7FF04440444203
:1052900044417FFE00000000000200020002000204
:1052A00000020002FFFE02020202020202020202E9
:1052B00002020002000200004000400040004000E6
:1052C000400040007FFF400040004200410040801D
:1052D0004060400040000000004002400440184090
:1052E000F040104010401FFF104010401040104090
:1052F00010400040004000003FFF20012001E0017D
:1053000080018001E001200120013FFF3FFF2003D9
:105310002003E00380038003E003200320033FFF1A
:105320003FFF20072007E00780078007E0072007EE
:1053300020073FFF3FFF200F200FE00F800F800F5F
:10534000E00F200F200F3FFF3FFF201F201FE01F17
:10535000801F801FE01F201F201F3FFF3FFF203FB7
:10536000203FE03F803F803FE03F203F203F3FFF26
:105370003FFF207F207FE07F807F807FE07F207F56
:10538000207F3FFF3FFF20FF20FFE0FF80FF80FFE7
:10539000E0FF20FF20FF3FFF3FFF21FF21FFE1FF54
:1053A00081FF81FFE1FF21FF21FF3FFF3FFF23FF3F
:1053B00023FFE3FF83FF83FFE3FF23FF23FF3FFF81
:1053C0003FFF27FF27FFE7FF87FF87FFE7FF27FF55
:1053D00027FF3FFF3FFF2FFF2FFFEFFF8FFF8FFFC5
:1053E000EFFF2FFF2FFF3FFF3FFF3FFF3FFFFFFF7D
:1053F0009FFF9FFFFFFF3FFF3FFF3FFF00000000B9
:105400000000000001020304060708090000000074
:1054100001020304C0B6D1C0D2F4CFE4B0E6B1BEFD
:10542000BAC5D2D1C1ACBDD3B6CFBFAAB5C8B4FD41
:10543000D6D0BFAAB9D8BBFAC7EBB3E4B5E7B3D8A7
:10544000D1B9C1BFB5CDB2A8D0CEC6B5C6D7CFD41D
:10545000CABEBEB2B2A5B7C5D5FDB3A3C4A3CABD6B
:10546000C4EAD4C2C8D5D0C7C6DAC9CFCFC2CEE746
:1054700000000000945400080000002030000000EC
:10548000D8300008C454000830000020780D000017
:10549000E830000814540008145400080A280200D8
:1054A00000000000000000000000000000000000FC
:1054B00001000000100000000000000000A24A04EB
:0454C00000000000E8
:04000005080000ED02
:00000001FF
